:1000000000000320D1010000ADF3010065F3010001
:1000100065F3010065F3010065F3010065F301007C
:1000200065F3010065F3010065F30100ADF3010024
:10003000ADF3010065F301003D0F02004110020025
:10004000ADF30100ADF30100ADF30100ADF301002C
:10005000ADF30100ADF30100ADF30100ADF301001C
:10006000ADF30100ADF30100ADF30100ADF301000C
:10007000ADF30100ADF30100ADF30100ADF30100FC
:10008000ADF30100ADF30100ADF30100ADF30100EC
:10009000ADF30100ADF30100ADF30100ADF30100DC
:1000A000BDEE0100C9EE0100ADF30100ADF30100AA
:1000B000ADF30100ADF30100ADF301008D170200B7
:1000C000ADF30100B9180200ADF30100E51902001B
:1000D000ADF30100DD1A0200ADF30100ADF3010044
:1000E000ADF30100ADF30100ADF30100ADF301008C
:1000F000ADF30100ADF30100ADF30100ADF301007C
:1001000099100200AD100200C1100200D5100200CB
:10011000ADF30100D1FA0100ADF30100ADF3010030
:10012000ADF30100ADF30100ADF30100ADF301004B
:10013000ADF30100ADF30100ADF30100ADF301003B
:10014000F10C0200ADF30100D51B0200ADF301007C
:10015000ADF30100ADF30100ADF30100ADF301001B
:10016000ADF30100ADF30100D5EE0100ADF30100E8
:10017000ADF30100ADF30100ADF30100ADF30100FB
:10018000ADF30100ADF30100ADF30100ADF30100EB
:10019000ADF30100ADF30100CD1C0200ADF3010091
:1001A000ADF30100ADF30100ADF30100E1EE01009C
:1001B000ADF30100ADF30100ADF30100ADF30100BB
:1001C000ADF30100ADF30100ADF30100ADF30100AB
:1001D0005C4B4CF2205210B51A804DF628121A8052
:1001E00000BF00BF1FF0E6F8574B4FF030621A60B7
:1001F000564A9A60564ADA60564B4FF470021A60BB
:10020000554B564A1A60564A136813F4807304D14A
:1002100054490B604FF4A8531360534B1A781107DD
:1002200003D51A7842F008021A70504B5049AA229E
:100230001A70504A504B8B4204D252F8040F43F8C4
:10024000040BF8E74D4B4E4900228B4202D243F893
:10025000042BFAE74B494C4A002352F8230041F89B
:1002600023000133742BF8D1484B494A802103F80D
:10027000011B9342FBD1474B424A1A60464B8A22EC
:100280001A70A3F5805324225A70A0221A709A790A
:100290009207FCD59A79D406FCD4404A937903F0AE
:1002A0000C03082BFAD13E4B60221A7002331A78E5
:1002B000802AFCD1394B01221A715D225A719A7938
:1002C0009006FCD59979354A4906FBD5354B364918
:1002D00019600021596020231370937903F00C03F7
:1002E0000C2BFAD1314B324A1A60324B324A1A6027
:1002F00000225A60072243F8042C304AC3F80C2D20
:1003000062B61FF055FA174B1B68DA0705D52C4863
:100310001FF0ACF92B4B2C4A1A602C4B1B785B0658
:1003200009D5284C284B22689A4204D124481FF052
:100330009DF90023236024F0E9FF1FF041F820F02D
:10034000D3FEFEE70E20054030800440823F0400CB
:100350000100002B88ED00E0002008E0030000858C
:1003600010D0034014D0034002D0074000E0074003
:100370009CA6FF1F2C2F0700308FFF1F9CA6FF1F7E
:10038000F0C00020008AFF1F0000000000E400E031
:1003900064E400E008ED00E0005006400040064044
:1003A00001E007404480044000000602048004404D
:1003B000C010070014E000E01FBF02000000202072
:1003C0008FDE025D1CE00340A5C3945A00F0074095
:1003D000FFFFFFFFFFFFFFFFFFFFFFFFFFFFFFFF2D
:1003E000FFFFFFFFFFFFFFFFFFFFFFFFFFFFFFFF1D
:1003F000FFFFFFFFFFFFFFFFFFFFFFFFFFFFFFFF0D
:10040000FFFFFFFFFFFFFFFFFFFFFFFFDEF9FFFF23
:1004100010B5054C237833B9044B13B10448AFF33E
:1004200000800123237010BD9CA6FF1F0000000068
:10043000302F0700084B10B51BB108490848AFF32F
:1004400000800848036803B910BD074B002BFBD0A0
:10045000BDE81040184700BF00000000A0A6FF1F25
:10046000302F07009CA6FF1F00000000114B1B78D7
:1004700010B50446D3B9104B1B78B3B10F4B1B78A2
:10048000DB0712D50E4B0F4A1B6812689B1A0E2B06
:100490000BD9204625F074FF0146204620F0ACF928
:1004A0000948BDE8104020F069BE10BD03F084FE8D
:1004B000E1E700BF1090FF1FD8BC0020F0BC002077
:1004C000F4BB0020E8C00020AC9DFF1F08B502F07F
:1004D0003FFA00211348FFF7C9FF134B1B781BB1EC
:1004E000124B1B78DB0711D401211148FFF7BEFF27
:1004F00010F02AFD02F0DCF800210E48FFF7B6FFED
:1005000003F020FABDE8084007F062BD0A4B0B4A31
:100510001B6812689B1A0E2BE6D900210848FFF7CA
:10052000A5FFE5E79C680200D8BC0020F0BC0020D5
:10053000C8680200A8680200F4BB0020E8C00020E0
:10054000B868020005F06CB810B5044B044640F8DA
:10055000183B19F011FD204610BD00BF9C27070075
:1005600010B5044620F07CFB204610BD002310B4DB
:10057000114C4172026104600372C36041B11946BB
:1005800000E0026942F82310427A01339A42F8DC13
:100590000A4B1A680AB90CE01A465369002BFBD1C2
:1005A0005061002343618380C38083725DF8044BF4
:1005B00070471860F5E700BFE0680200F4BC002057
:1005C00011490A6838B50023104D0560044643728E
:1005D00003610372C3600AB914E01A465369002B21
:1005E000FBD1546100230A4A63612046A380E38063
:1005F000A372A361E3612362A384226018F072FEF8
:10060000204638BD0860EDE7F4BC0020E068020039
:10061000A827070038B50446194B036000210120C4
:1006200004F118020B46607222612172E16000E061
:10063000226942F82310627A01339A42F8DC114BA6
:100640001A680AB91AE01A465369002BFBD15461A3
:1006500000250D490D4A0E4B236320466561A58098
:10066000E580A572216022629FED0A0A19F056F812
:1006700047F6FF73E585A385204638BD1C60E7E794
:10068000E0680200F4BC0020CC270700E63C010033
:1006900082902C0000000044DFED327AB4EEE70ACD
:1006A000F1EE10FA42DC9FED307AB4EEC70AF1EEBB
:1006B00010FA42D4F0EE406AFEEEC86AB4EEE70AE1
:1006C000F1EE10FA16EE903AC0ED066A3CDCB4EE9C
:1006D000C70A264AF1EE10FA48BF1346DFED217A29
:1006E000C361B4EEE70AF1EE10FA22DCDFED1E7A08
:1006F000B4EEE70AF1EE10FA5BBFF0EE407AFEEEE0
:10070000C87A1A4B17EE903ADFED167A0362B4EE10
:10071000E70AF1EE10FA23DCDFED137AB4EEE70A14
:10072000F1EE10FA14D5114B43627047104B836100
:10073000C3610F4B036243627047B4EEE70A0B4B91
:100740008361F1EE10FAC9DD094BC3610362F2E780
:10075000F0EE407AFEEEC87A17EE903A43627047A8
:10076000034BE8E700FEFF4600FEFFC600000180E5
:100770000000FF7F014818F097BF00BFECA9FF1FE2
:10078000014818F091BF00BF24AAFF1F014818F0CC
:100790008BBF00BF5CAAFF1F014818F085BF00BFD8
:1007A00094AAFF1F38B50C4605460321394820F0AE
:1007B00023F800230A222946374820F0EFFC0121C4
:1007C000364820F019F82168334820F027FD012130
:1007D000324820F011F861682F4820F01FFD0121F8
:1007E0002E4820F009F8A1682B4820F017FD0121C0
:1007F0002A4820F001F8E168274820F00FFD012188
:1008000026481FF0F9FF2169234820F007FD224800
:1008100020F0B4FC072D3BD8DFE805F0171E252C8F
:100820003304040B224600211D48BDE8384017F070
:1008300085BC224600211B4817F080FC224600217F
:100840001948BDE8384017F079BC22460021174806
:10085000BDE8384017F072BC224600211448BDE8BC
:10086000384017F06BBC224600211248BDE83840E2
:1008700017F064BC224600210F48BDE8384017F04D
:100880005DBC224600210D48BDE8384017F056BC3B
:1008900038BD00BFE4680200AC9DFF1FE86802009D
:1008A000B48700205CB6FF1FF8B6FF1F64850020E8
:1008B0005C860020E8A7FF1FD0ABFF1F20B8FF1FFA
:1008C0000B283ED8DFE800F03E5D068C98909461DE
:1008D0003D3D3D658C488D490222F5EE400AF1EE22
:1008E00010FA38D1DFED8A7AB4EEE70AF1EE10FAA9
:1008F00000F38680DFED877AB4EEE70AF1EE10FAB6
:100900005CBFF0EE407AFEEEC87A02F1060258BFF4
:1009100017EE903ADFED7E7A48BF7F4B41F82230E8
:10092000B4EEE70AF1EE10FA00F38180DFED797A98
:10093000B4EEE70AF1EE10FA40F18780764B40F80A
:1009400022307047F5EE400AF1EE10FA6F496E481A
:100950004FF00002C6D0F5EEC00ADFED6D7AF1EE81
:1009600010FAB4EEE70A64DDF1EE10FA4DDCDFEDCB
:10097000697AB4EEE70AF1EE10FA40F1A080664B16
:1009800044E0012260486149A7E703225E485F49CD
:10099000A3E79FED627ADFED627A6248E0EE077AC4
:1009A00010B5FCEEE77A2DED028B17EE901AB0EE43
:1009B000608A16F033FBB5EE408AF1EE10FA69D189
:1009C00059495A4C4FF480338B61CB610B62A36160
:1009D000E3612362BDEC028B00234B62636210BDB6
:1009E00001225348534978E703225148514974E79B
:1009F00000225148514970E702224D484D496CE7A9
:100A000006324F4B41F8223099E74D4B9FED407A2B
:100A1000F7EE007A77EEE00A063220EE800A41F81F
:100A20002230B4EEC70AF1EE10FA7FF77FAF444BE5
:100A300085E7F1EE10FA0FDCDFED367AB4EEE70A67
:100A4000F1EE10FA49D5344B07E0F0EE407AFEEEB5
:100A5000C87A17EE903A72E7394BDFED2D7AB7EE90
:100A6000007A70EE870A063220EE800A40F82230C3
:100A7000B4EEE70AF1EE10FA08DCDFED267AB4EE08
:100A8000E70AF1EE10FA21D5234B00E02C4B41F898
:100A900022307047B5EEC08AF1EE10FA24DD22490B
:100AA0002248B7EE000A4FF4803330EE480A04467D
:100AB0008B61CB610B624B62FFF7EEFD8AE7F0EED4
:100AC000407AFEEEC87A17EE903A9FE7F0EE407A51
:100AD000FEEEC87A17EE903AD9E7F0EE407AFEEED5
:100AE000C87A17EE903AB8E7104C0F48B7EE000AF4
:100AF0004FF4803338EE000A0146A361E3612362BC
:100B00006362FFF7C9FD65E724860020D4940020C6
:100B100000FEFF4600FEFFC600000180000001430A
:100B2000EE7CFF3EA494002090A7FF1F08A7FF1FA4
:100B3000E48E00200C9500203C8F0020449500207E
:100B40000000FF7F72B6174B1A7F02F0FF010AB157
:100B500000221A7762B609B310B472B647F6FF7472
:100B60004FF40040B3F91E10B3F92020DC83188441
:100B700062B6002982EAE273A3EBE273B8BF49428E
:100B80008B42B8BF0B4607EE903A9FED077A5DF8AF
:100B9000044BF8EEE77A87EE870A70479FED030A69
:100BA000704700BF0086002000FEFF4600000000E6
:100BB00072B6174B1A7F02F0FF010AB100221A77B2
:100BC00062B609B310B472B647F6FF744FF4004032
:100BD000B3F91E10B3F92020DC83188462B6002913
:100BE00082EAE273A3EBE273B8BF49428B42B8BF1B
:100BF0000B4607EE903A9FED077A5DF8044BF8EE4E
:100C0000E77A87EE870A70479FED030A704700BFB7
:100C1000F886002000FEFF460000000072B6174B69
:100C20001A7F02F0FF010AB100221A7762B609B3F7
:100C300010B472B647F6FF744FF40040B3F91E10BB
:100C4000B3F92020DC83188462B6002982EAE273BB
:100C5000A3EBE273B8BF49428B42B8BF0B4607EE25
:100C6000903A9FED077A5DF8044BF8EEE77A87EE4D
:100C7000870A70479FED030A704700BF6489002010
:100C800000FEFF460000000072B6174B1A7F02F00C
:100C9000FF010AB100221A7762B609B310B472B626
:100CA00047F6FF744FF40040B3F91E10B3F920204B
:100CB000DC83188462B6002982EAE273A3EBE27354
:100CC000B8BF49428B42B8BF0B4607EE903A9FED42
:100CD000077A5DF8044BF8EEE77A87EE870A7047EB
:100CE0009FED030A704700BFA0A9FF1F00FEFF464B
:100CF0000000000072B6174B1A7F02F0FF010AB124
:100D000000221A7762B609B310B472B647F6FF74C0
:100D10004FF40040B3F91E10B3F92020DC8318848F
:100D200062B6002982EAE273A3EBE273B8BF4942DC
:100D30008B42B8BF0B4607EE903A9FED077A5DF8FD
:100D4000044BF8EEE77A87EE870A70479FED030AB7
:100D5000704700BF1C87002000FEFF460000000017
:100D600072B6174B1A7F02F0FF010AB100221A7700
:100D700062B609B310B472B647F6FF744FF4004080
:100D8000B3F91E10B3F92020DC83188462B6002961
:100D900082EAE273A3EBE273B8BF49428B42B8BF69
:100DA0000B4607EE903A9FED077A5DF8044BF8EE9C
:100DB000E77A87EE870A70479FED030A704700BF06
:100DC0007C94002000FEFF460000000072B6174B26
:100DD0001A7F02F0FF010AB100221A7762B609B346
:100DE00010B472B647F6FF744FF40040B3F91E100A
:100DF000B3F92020DC83188462B6002982EAE2730A
:100E0000A3EBE273B8BF49428B42B8BF0B4607EE73
:100E1000903A9FED077A5DF8044BF8EEE77A87EE9B
:100E2000870A70479FED030A704700BFB094002007
:100E300000FEFF460000000072B6174B1A7F02F05A
:100E4000FF010AB100221A7762B609B310B472B674
:100E500047F6FF744FF40040B3F91E10B3F9202099
:100E6000DC83188462B6002982EAE273A3EBE273A2
:100E7000B8BF49428B42B8BF0B4607EE903A9FED90
:100E8000077A5DF8044BF8EEE77A87EE870A704739
:100E90009FED030A704700BF7C95002000FEFF46CF
:100EA000000000000146014817F062BE0CADFF1FB4
:100EB000024603295CD8DFE801F046311C02DFED71
:100EC0003C7AB4EEE70AF1EE10FA52DCDFED397A43
:100ED000B4EEE70AF1EE10FA53D4F0EE407AFEEEEB
:100EE000C87A17EE903A344934488B61114618F0AD
:100EF0001BBADFED2F7AB4EEE70AF1EE10FA3EDC12
:100F0000DFED2C7AB4EEE70AF1EE10FA42D52C4B65
:100F10002C492D488B61114618F006BADFED247A72
:100F2000B4EEE70AF1EE10FA27DCDFED227AB4EE38
:100F3000E70AF1EE10FA34D5214B244924488B619D
:100F4000114618F0F1B9DFED1A7AB4EEE70AF1EEC6
:100F500010FA10DCDFED177AB4EEE70AF1EE10FAC2
:100F600011D5174B1B491C488B61114618F0DCB991
:100F700070471A4BB7E7194BF4E7184BDDE7174BEF
:100F8000C6E70F4BAFE7F0EE407AFEEEC87A17EEF9
:100F9000903AE7E7F0EE407AFEEEC87A17EE903A24
:100FA000B6E7F0EE407AFEEEC87A17EE903AC4E764
:100FB00000FEFF4600FEFFC61C8F002008850020B3
:100FC0000000018094870020D484002074870020D2
:100FD000A0840020548700206C8400200000FF7F44
:100FE000014817F08FBD00BF0CADFF1F014818F07E
:100FF00045B800BF0CADFF1F30B51A4885B01CF0D6
:101000009DFBE8B168461749174D1CF0EFFA9DE8C3
:101010000F002C4607C40A21238014481FF0ECFB64
:101020001CF0AAFA002301460A22114820F0B6F863
:101030000F4820F0A3F80F4B2A681A6005B030BDA6
:101040001CF09AFA4FF48001024606481CF084FB1B
:101050000028D7D00E2108481FF0CEFB044820F00E
:101060008DF8CFE7106A0200CC8E0020306A0200B3
:10107000AC9DFF1F84A8FF1F206A020070B50E21DF
:101080001648174C174D1FF0B7FB174820F076F89D
:101090001CF072FA154922684008002328600B6092
:1010A000DAB1134A10481168124D4FF480760A22C3
:1010B000A66020F073F80C4820F060F804210E4878
:1010C0001FF09AFB084820F059F8284618F094F9C8
:1010D0000A4A012385F8F630136070BD3C6A0200AD
:1010E000CC8E0020A0940020AC9DFF1FDC8E002041
:1010F00084A8FF1F8CAFFF1F4C6A0200E08E002007
:1011000038B5214B1B682BB1204C214A206812684E
:1011100082422BD21F4D17E0934209D2D41A2A687B
:101120000146981822461BF027FCAA682244AA60B0
:10113000012119481FF060FB154A1848136803F590
:101140008073136018F09CF9144818F049F90228CC
:1011500012480ADD18F076F9AB686A6803F5807406
:101160009442D9D84FF48074D9E738BD18441BF0A5
:101170000DFD01210A481FF03FFB1CF0FDF923681B
:101180001844206038BD00BF84A8FF1FDC8E0020FB
:10119000A0940020CC8E0020406902008CAFFF1F7D
:1011A000546A020070B50D211B481C4E1FF024FB31
:1011B0001B481FF0E3FF33681A4A0021012B82F815
:1011C000F61002D00023336070BD174D12E0934239
:1011D00009D2D41A2A680146981822461BF0CCFB83
:1011E000AA682244AA60012110481FF005FB0D489F
:1011F00018F046F90B4818F0F3F800280948E1DD2B
:1012000018F020F9AB686A6803F580749442DED860
:101210004FF48074DEE700BF586A0200E08E0020C1
:10122000AC9DFF1F8CAFFF1FCC8E002040690200D9
:1012300038B50E4C0E480C211FF0DEFA20461FF088
:101240009DFF0C490C4818F06FF8012105460B482A
:101250001FF0D2FA294620461FF0E0FF20461FF07B
:101260008DFF074B02221A6038BD00BFAC9DFF1FE7
:10127000686A0200106A0200988F00208C690200E0
:10128000E08E0020094890F8303003B1704710B567
:1012900003F0FF0418F02CF80E2105481FF0ACFAFB
:1012A00004481FF06BFF044B1C6010BD988F00209A
:1012B000786A0200AC9DFF1FE08E002010B50B2164
:1012C00009480A4C1FF098FA09481FF057FF236895
:1012D000022B02D00023236010BD064818F008F846
:1012E0000023236010BD00BF886A0200E08E00204A
:1012F000AC9DFF1F988F00202DE9F04F1A4B1B4D1E
:101300001A681B4B2DED028B2B60002383B06B7290
:101310002B612B72EB6012B901F096B91A46536932
:10132000002BFBD155610024124B13486C61AC803B
:10133000EC80AC722B6018F011FE0C48EC662C6748
:1013400017F0CAFB0D4A0E4908480E4E23F0CCFF99
:10135000054B74721A68064B336034613472F46062
:10136000014B92B901F074B9F4BC00200CADFF1F21
:10137000E06802009C27070024ADFF1F0C90FF1FB0
:1013800049050000A09500201A465369002BFBD1A7
:1013900056610024D24BD3487461B480F480B47297
:1013A000336016F0AFFFD04BD04F03F198021846D0
:1013B0000121FFF7DBF8CC4BCB4943F8147B2246E5
:1013C000943143F8042F9942FBD1C94B012103F119
:1013D00098021846FFF7CAF8C54B03F1940143F889
:1013E000147B002243F8042F99424FF00004F9D1F6
:1013F000C04B9FEDC18ADFEDC18ADFF89093DFF823
:10140000908303F1180218460121FFF7AFF8BC4B97
:1014100003F118021846B74B4FF0000B4FF4804A07
:101420000121C3F80090C3F834B0C3F838B0C3F852
:101430002CB0A3F81CA01C63C3ED088A83ED098AB5
:1014400083ED0A8AFFF792F8AD4BAE48C3F80090DF
:1014500022462146C3F834B0A3F81CA0C3F838B024
:10146000C3F82CB0C3ED088A83ED098A83ED0A8A9C
:101470001C63FFF77BF8A34BA348C3F80080224608
:1014800021461C76FFF772F89F4BA048C3F80080F6
:10149000224621461C76FFF769F89C4B9C48C3F80E
:1014A0000080224621461C76FFF760F8994BDFF852
:1014B000E4B2DFF8E49203F118021846944B0121DC
:1014C000C3F800801C76FFF751F8934B03F1180224
:1014D0001846904B47F6FF784FF4004A0121C3F8B5
:1014E00000B0A3F81E80A3F820A0FFF73FF88B4BB5
:1014F00003F118021846884B0121A3F81E80C3F897
:1015000000B0A3F820A0FFF731F8854B03F11802D3
:101510001846824B012183F8F440C3F8F04083F869
:10152000F540C3F8009083F8F640FFF71FF87C48B9
:101530007C4B7D4A7D49036023F0D6FE7C4B012124
:1015400003F118021846FFF711F87A4B03F19802DD
:101550001846774B012183F8F440C3F8009083F8D4
:10156000F540C3F8F04083F8F640FEF7FFFF714BFB
:10157000704A43F8147B943243F8044F9342FBD1F2
:101580006D4B012103F198021846FEF7EFFF6A4BFD
:1015900003F1940143F8147B002243F8042F8B429B
:1015A000FBD1664B012103F198021846FEF7DEFFDE
:1015B000624B03F1940143F8147B002243F8042F9B
:1015C0008B42FBD15E4B012103F198021846FEF7D6
:1015D000CDFF5B4B03F1940143F8147B002243F8E9
:1015E000042F8B42FBD15748FEF7EAFF5648FEF71F
:1015F000E7FF5648FEF7E4FF5548FEF7E1FF554B7D
:10160000012103F198021846FEF7B0FF514B03F198
:10161000940143F8147B002243F8042F9942FBD134
:101620004D4B012103F198021846FEF79FFF4A4BEC
:1016300003F1940143F8147B002243F8042F9942EC
:10164000FBD14648DFF85481FEF7E4FF4448FEF73B
:10165000E1FF4448FEF7DEFF4348FEF7DBFF434867
:10166000FEF7AEFF4248FEF7ABFF424B012103F10C
:101670001C021846FEF77AFF3F4B03F11C02184686
:101680003C4B4FF480340121C3F800809C61FEF78D
:101690006DFF3A4B03F11C021846374B0121C3F88A
:1016A00000809C61FEF762FF354B03F11C02184677
:1016B000324B0121C3F800809C61FEF757FF314B8C
:1016C00003F1180218462E4B0121C3F800809C61DB
:1016D000FEF74CFF2C4B03F11802184660E000BFE8
:1016E00060270700A09500205CB6FF1F5427070065
:1016F000F8B6FF1FDC8D00205FAD6D3C5FAD6D3D2A
:10170000288900208889002008B2FF1F2890002027
:10171000D0B8FF1F64890020A0A9FF1F8CAFFF1F56
:101720007CA9FF1F482707000C90FF1FDD7F0100E9
:10173000D4B0FF1FD0ABFF1FE0A8FF1FB48700206D
:1017400020B8FF1FA0840020D48400206C840020D7
:1017500008850020648500205C86002094AAFF1F75
:101760005CAAFF1F24AAFF1FECA9FF1F988F00206F
:10177000E08F00201C8F00209487002074870020B9
:10178000548700207C950020B09400203C2707005F
:10179000C027070004260700B42707006C270700AE
:1017A000914B47F6FF784FF400490121C3F800B090
:1017B000A3F81E80A3F82090FEF7D8FE8B4B03F110
:1017C000380218468A4B0821A3F81E80C3F800B0DF
:1017D000A3F82090FEF7CAFE844B864A43F8142BE8
:1017E000824A343243F8044F9A42FBD1824B0121A2
:1017F00003F198021846FEF7B9FE7F4B03F19401FE
:1018000043F8147B002243F8042F9942FBD17B4814
:1018100016F09AF97A4B012103F198021846FEF767
:10182000A5FE774B03F1940143F8147B002243F8A3
:10183000042F99424FF00004F9D1724B724F03F11B
:10184000180218460121FEF791FE704B03F11802B1
:1018500018466C4B4FF4004847F6FF790121A3F876
:101860002080C3F800B0A3F81E90FEF77FFE684BFF
:1018700003F118021846654B0121A3F82080C3F834
:1018800000B0A3F81E90FEF771FE624B03F1280230
:1018900018465F4B0421A3F82080A3F81E90C3F8DC
:1018A00000B0FEF763FE5C4B03F128021846594B6B
:1018B0004FF4803804211F60C3F81880C3F81C80DF
:1018C000C3F82080C3F82480FEF750FE534B03F189
:1018D00028021846504B04211F60C3F81880C3F833
:1018E0001C80C3F82080C3F82480FEF73FFE4C4BD9
:1018F00003F128021846494B04211F60C3F81880E1
:10190000C3F81C80C3F82080C3F82480FEF72EFEA5
:10191000444B03F128021846414B04211F60C3F8D1
:101920001880C3F81C80C3F82080C3F82480FEF719
:101930001DFE3D4B03F1280218463A4B04211F605F
:10194000C3F81880C3F81C80C3F82080C3F8248033
:10195000FEF70CFE354B03F128021846324B0421EA
:101960001F60C3F81880C3F81C80C3F82080C3F838
:101970002480FEF7FBFD2E4B03F1280218462B4B6B
:1019800004211F60C3F81880C3F81C80C3F82080AE
:10199000C3F82480FEF7EAFD2548264A0760C0F810
:1019A0001880C0F81C80C0F82080C0F82480104641
:1019B00018320221204F04722346C460417242F85B
:1019C000187C21460261044600E0226942F8231097
:1019D000184A1848527A01339A42F6DC174B1A68B3
:1019E0007ABB00F038BE00BF7C95002088A8FF1F9E
:1019F000B0940020842707007888002024BDFF1FB2
:101A0000E8A7FF1F748F0020782707007C94002030
:101A10001C870020D49400200C95002044950020C1
:101A200024860020E48E00203C8F002090A7FF1F1A
:101A300008A7FF1FC8A7FF1FE0680200F4BC002032
:101A40001A465369002BFBD1C54B5361C448C54BA3
:101A50000360002444618480C480847216F08AFF8D
:101A6000C14BC24FDFF88CA303F1180218460121C5
:101A7000FEF77CFDBE4B03F118021846BA4B47F641
:101A8000FF794FF400480121C3F800B0A3F81E907D
:101A9000A3F82080FEF76AFDB54B3C72A3F81E90B8
:101AA0003846C3F800B0A3F82080B24B7B603D609D
:101AB0007C72FC603C741FF09FF8AF4AAF49DFF8BE
:101AC0003883DFF83893DFF838B3384623F00CFC5E
:101AD000AB4BCAF8043050464FF001038AF8083087
:101AE0008AF80940CAF80050CAF80C408AF8104039
:101AF0001FF082F8A04AA149A24FA34D504623F0FF
:101B0000F3FBA24BC8F80430404688F80840C8F8F8
:101B1000006088F80940C8F80C4088F810401FF0B1
:101B20006BF8954A9549DFF8DCA2404623F0DCFBD0
:101B30004FF0010338463B72954B7B603E607C72F0
:101B4000FC603C741FF058F88B4A8C49DFF8B8826F
:101B5000904E384623F0C8FB864BC9F800308E4BB8
:101B6000C9F8043048464FF0030389F8093089F872
:101B70000840C9F80C4089F810401FF03DF87E4A33
:101B80007E49864F484623F0AFFB7A4B2B602846B0
:101B9000834B2C726B606C72EC602C741FF02CF811
:101BA000754A76497F4B0193284623F09DFB744B81
:101BB000C8F800307C4BC8F8043040464FF00303AF
:101BC00088F8093088F80840C8F80C4088F81040B8
:101BD0001FF012F8684A6949744DDFF830924046A8
:101BE00023F082FB664B3B603846714B7B603C7256
:101BF0007C72FC603C741EF0FFFF5F4A5F49DFF8B7
:101C00001082384623F070FB614B33603046694BDD
:101C1000736034727472F46034741EF0EDFF564ACF
:101C20005649654F304623F05FFB594B2B602846E1
:101C3000624B6B602C726C72EC602C741EF0DCFFDB
:101C40004E494D4A5E4E284623F04EFB019B4F4ABB
:101C50001A6018465B4A1C725A605C72DC601C7425
:101C60001EF0CAFF019B444A4449574D1846574B42
:101C7000019323F039FB454BCBF800305846544BC9
:101C8000CBF804308BF808408BF80940CBF80C40B7
:101C90008BF810401EF0B0FF374A3849584623F001
:101CA00023FB4C4BCAF8003050464B4BCAF804306B
:101CB0008AF808408AF80940CAF80C408AF81040AF
:101CC0001EF09AFF2C4A2D49DFF848B1504623F008
:101CD0000BFB424BC9F800304846414BC9F8043071
:101CE00089F8084089F80940C9F80C4089F8104083
:101CF0001EF082FF204A2149DFF81CA1484623F04C
:101D0000F3FA384BC8F800304046374BC8F8043077
:101D100088F8084088F80940C8F80C4088F8104056
:101D20001EF06AFF144A1549DFF8F090404623F090
:101D3000DBFA2E4B3B6038462D4B7B603C727C724D
:101D4000FC603C741EF058FF0B4A0C49DFF8D08051
:101D5000384623F0C9FA174B3360304662E000BFC3
:101D6000C8A7FF1F90270700F8860020C4A9FF1FFF
:101D7000008600205CB6FF1F0C90FF1F610500006D
:101D8000F8B6FF1FACB0FF1FE0B1FF1F288900208D
:101D9000DC8D0020F4AAFF1FD4940020E0AAFF1FCE
:101DA0006489002064880020248600205088002058
:101DB000A0A9FF1F7CA9FF1F58ABFF1FD4B0FF1FB6
:101DC0006CABFF1F6485002080ABFF1FA8B7FF1F0F
:101DD0008CAFFF1F8889002020B8FF1F08B2FF1FAB
:101DE000B487002028900020E0A8FF1FD0B8FF1F74
:101DF000D0ABFF1FD8A9FF1F84B0FF1FBCB7FF1FC8
:101E000008ABFF1F1CABFF1FCCAAFF1F30ABFF1F8F
:101E100044ABFF1FF4B1FF1FF8B7FF1FA8ABFF1FB4
:101E2000BCABFF1FB44B736034727472F4603474D3
:101E30001EF0E2FEB14AB249B24F304623F054FAE6
:101E4000B14B2B60B14B6B6028464FF001036B72B6
:101E50002C72EC602C741EF0CFFEA949A74AAC4E40
:101E6000284623F041FAAB48A74A0260AA4A4260DA
:101E70004FF0010204724272C46004741EF0BCFE92
:101E80009F499E4AA348A54D23F02EFAA448A54A8F
:101E900002609E4A42604FF0030204724272C460C4
:101EA00004741EF0A9FE9649944A9D4823F01CFA3A
:101EB000019B9C4A1A60984A5A6018464FF00302E8
:101EC0001C725A72DC601C741EF096FE019B8B4AD9
:101ED0008B491846944B019323F006FA934BCBF8A9
:101EE00000308A4BCBF8043058464FF002038BF891
:101EF00009308BF80840CBF80C408BF810401EF0EE
:101F00007BFE7F497D4A584623F0EEF98848874A90
:101F10000260814A42604FF0020204724272C46061
:101F200004741EF069FE754A75498148DFF864B291
:101F300023F0DAF97F4B804A80491C7218465960B9
:101F40005C72DC601C741A601EF056FE6C496B4AB1
:101F5000784823F0C9F97A4B7A4ACAF804305046D7
:101F60008AF808408AF80940CAF80C408AF81040FC
:101F7000CAF800201EF040FE5046604A6049DFF873
:101F800018A223F0B1F9704B704A71491C721846BF
:101F900059605C72DC601C741A601EF02DFE58499A
:101FA000564A694823F0A0F96A4B6B4AC9F80430D5
:101FB000484689F8084089F80940C9F80C4089F872
:101FC0001040C9F800201EF017FE4D494B4A484604
:101FD00023F08AF96148624A0260624A04724260F0
:101FE0004472C46004741EF007FE444A44495B48CE
:101FF000DFF8A89123F078F9594BC8F80030404633
:10200000594BC8F8043088F8084088F80940C8F8E7
:102010000C4088F810401EF0EFFD3949374A404621
:1020200023F062F951484E4A0260514A04724260FC
:102030004472C46004741EF0DFFD31492F4A4B48DE
:10204000DFF85C8123F050F94A482B4A02604A4A83
:10205000047242604472C46004741EF0CDFD274ACD
:102060002749444823F040F9234B3B603E4B7B60BB
:1020700038464FF001037B723C72FC603C741EF0EA
:10208000BBFD1F491D4A384623F02EF93B481A4A2A
:102090000260374A42604FF0010204724272C4602B
:1020A00004741EF0A9FD154A15493448344F23F035
:1020B0001BF9114B33603046324B736034727472CB
:1020C000F46034741EF098FD30460C4A0C492E4ED4
:1020D00023F00AF92D4B2E491C72184607225E6028
:1020E000DC601C7419605A721EF086FD034A0449B4
:1020F000264823F0F9F855E05C8600200C90FF1F7D
:10210000610500002C8E0020D0ABFF1F0C95002035
:10211000548E002094ABFF1FE48E00207C8E0020A4
:1021200094B7FF1FB4870020B8A6FF1F20B8FF1F79
:10213000D0B7FF1FE4B7FF1FA084002074870020E2
:1021400094870020D48400200CB8FF1F6C840020EA
:10215000548700201C8F002008850020BCB8FF1F7A
:1021600064850020B0940020D494002014890020BD
:1021700024860020188E00207C950020408E0020B0
:10218000A8ACFF1F7888002088A8FF1F688E002059
:1021900094AAFF1FE0A6FF1F40A7FF1F68A7FF1F0D
:1021A0007CA7FF1FB2492C72062228466E60EC60A5
:1021B0002C7429606A721EF01FFD2846AD4AAE4994
:1021C000AE4D23F091F8AE4BAE491C721846052275
:1021D0005E60DC601C7419605A721EF00DFDA54A29
:1021E000A549A74823F080F8A74BA8491C721846B8
:1021F00004225E60DC601C7419605A721EF0FCFCE4
:102200009C4A9D49A048A24E23F06EF8A14BA24AD9
:10221000A2491C72184659605C72DC601C741A601A
:102220001EF0EAFC934A94499A4823F05DF8019B1A
:102230009B4A9C491C72184659605C72DC601C7495
:102240001A601EF0D9FC019B8B498A4A184623F07C
:102250004BF895484FF003024272944A0260944A48
:1022600042600474C46004721EF0C6FC814A824954
:102270008D4823F039F84FF002038BF809308D4B6D
:10228000CBF8003058468A4BCBF804308BF810401E
:10229000CBF80C408BF808401EF0AEFC7649754A2E
:1022A000584623F021F884484FF001024272834AD5
:1022B00002607F4A42600474C46004721EF09CFC99
:1022C0006D496C4A7C4823F00FF87D487D4A0260D6
:1022D000774A047242604472C46004741EF08CFC3D
:1022E000644A6549764822F0FFFF714BCAF8003016
:1022F0005046754BCAF804308AF808408AF80940FD
:10230000CAF80C408AF810401EF076FC5A49594A27
:10231000504622F0E9FF6D48654A02606C4A04723B
:1023200042604472C46004741EF066FC514A524913
:10233000664822F0D9FF674BC9F800304846664B23
:10234000C9F8043089F8084089F80940C9F80C40F8
:1023500089F810401EF050FC4749464A484622F092
:10236000C3FF5E485C4A02605D4A42600472447288
:10237000C46004741EF040FC3E4A3F49574822F0B6
:10238000B3FF554BC8F800304046564BC8F80430F0
:1023900088F8084088F80940C8F80C4088F81040D0
:1023A0001EF02AFC3449334A404622F09DFF4E4835
:1023B0004FF001020272484A02604C4A4260447285
:1023C000C46004741EF018FC2B492A4A464822F0C7
:1023D0008BFF4748404A0260464A42604FF0010284
:1023E00002724472C46004741EF006FC2249214A41
:1023F0003F4822F079FF40484FF002024272344ACF
:1024000002603E4A42600472C46004741EF0F4FB31
:102410001949184A384822F067FF39484FF002023C
:1024200042722B4A0260374A42600472C4600474EC
:102430001EF0E2FB0F4A1049314822F055FF2F4BA6
:102440003B603846304B7B603C727C72FC603C7475
:102450001EF0D2FB0849074A384622F045FF2B48B8
:102460004FF0010242721E4A0260274A42604FE06A
:102470005CAAFF1F0C90FF1F610500003C85002037
:10248000908E002024AAFF1FA48E0020ECA9FF1F1D
:1024900050850020B88E0020988F00203C8F0020AF
:1024A000E08F002044950020CCA6FF1F1C8F002049
:1024B00088A8FF1F94870020F4A6FF1F74870020C0
:1024C000D0ACFF1F54870020748F002054A7FF1F3B
:1024D000E8A7FF1F7888002024BDFF1F4087002049
:1024E0000C9500201C87002098B0FF1FE48E002070
:1024F0006CACFF1F7C94002080ACFF1FD4940020A4
:1025000094ACFF1F2486002090A7FF1FBCACFF1FC8
:102510000472C46004741EF06FFB5049504A514865
:1025200022F0E2FE50484FF0020242724F4A02602F
:102530004F4A42600472C46004741EF05DFB474958
:10254000474A494822F0D0FE4A484B4A02604B4A6B
:10255000047242604472C46004741EF04DFB3F4933
:102560003F4A444822F0C0FE4548464A0260434A7A
:1025700042604FF0010204724272C46004741EF0A3
:102580003BFB3649364A3E4822F0AEFE3E484FF00D
:10259000020242723D4A0260384A42600472C460DC
:1025A00004741EF029FB2D492D4A374822F09CFE69
:1025B00037482F4A0260374A426004724472C4604E
:1025C00004741EF019FB2549254A314822F08CFE7F
:1025D0003148324A4260264A026004724472C46042
:1025E00004741EF009FB1E4A1C492B4822F07CFE95
:1025F0004FF001036B72214B2B602846254B6B601B
:102600002C72EC602C741EF0F7FA154A1349284618
:1026100022F06AFE224B73603046184B33603472EE
:102620007472F46034741EF0E7FA30460C4A0B49B9
:1026300022F05AFE1B4B1C4A1A600A221A7203B07F
:10264000BDEC028BBDE8F08F184B1D60FEF76BBE32
:102650001E60FEF79EBE1860FFF7F8B96105000026
:102660000C90FF1FBCACFF1FCC8F002044950020B6
:1026700090A7FF1FE4ACFF1F2486002008A7FF1FC0
:10268000F8ACFF1FE48E0020149000203C8F002047
:10269000C0B0FF1FC8A7FF1FCCB1FF1F00860020DE
:1026A000F8860020A494002010260700F4BC002027
:1026B0002DE9F043DFF850826C48DFF850926C4E01
:1026C0006C4D6D4C6D4F87B080211EF099F947F627
:1026D000C2639FED6B0AC8F820304046C8F83090BE
:1026E00016F0ECFF40469FED670A17F017F8664BAF
:1026F000336230469FED620AC6F8309016F0DEFF76
:102700003046B7EE000A17F009F8604A604B2A63BA
:102710002B622846B7EE000A16F0D0FF2846B6EE28
:10272000000A16F0FBFF5B4A5B4B226323622046E4
:102730009FED530A594E5A4D16F0C0FF20469FEDAB
:10274000500A584C16F0EAFFDFF8C4C15649DFF8CA
:10275000C4E14FF480328A61CA610A624A62CCF8ED
:1027600018205249CCF81C20CCF82020504A0023D5
:1027700038468B61CB610B624B629361D36113620C
:102780005362CCF82430CEF81830CEF81C30CEF896
:102790002030CEF82430B361F36133627362AB61F1
:1027A000EB612B626B62A361E3612362636214F0ED
:1027B0006BFB38465522202114F038FB38B1FA88DB
:1027C00042F0040292B23846242114F02FFB394D16
:1027D0002A48394E394C14F0EBFB0495384D394BEF
:1027E0003948019301AA002103930296059415F03C
:1027F000A5FC049505F1B755344B354E354C36489C
:10280000019301AA002105F58E1503930296059404
:10281000324E334C15F092FC05F54765314B32488A
:10282000019301AA0021039302960495059415F0E3
:1028300085FC2E4814F036FC11222D492D4815F048
:10284000D9FB2D492D4A4FF4837306208B83938344
:102850001AF086FD30B91F2129481DF0CDFF294807
:102860001EF08CFC07B0BDE8F08300BF0002FF1F24
:1028700024AAFF1F5CAAFF1F94AAFF1FA494002094
:1028800000000000CDCC0C3FCC790200FA81980109
:1028900057DB0100204A7B03B2F304000C950020B3
:1028A000449500202486002008A7FF1FE48E002006
:1028B0003C8F002075074A8156624881C842B93E64
:1028C000DEFD9382D5CE5B3F64850020F342B93EA6
:1028D0001A7A8D82AA09793D5C860020BAB6260252
:1028E00027A3C72A5D5B13017888002024BDFF1F42
:1028F0001490FF1F7CA9FF1FDC8D00202889002079
:10290000946A0200AC9DFF1FECA9FF1F82902C006F
:1029100090A7FF1FD494002038B5054CA4F1800582
:102920002046103C1EF00CFDAC42F9D138BD00BF72
:10293000A896002038B5054CA4F170052046103C3F
:102940001EF0FEFCAC42F9D138BD00BF1897002044
:1029500010B50A4C204611F06DFF2046012111F000
:1029600009FC2046002111F0F7FB054BA36120462E
:102970000021BDE8104011F03BBD00BF28970020AA
:10298000E01A07002DE9F041840182B0682304F1C8
:1029900074060025174688468DE8280031463F23F7
:1029A0001422274811F01AFA002F45D0254B24484D
:1029B0001B8801930E233146009317223F2311F009
:1029C0000DFA182204F17C011D481F4E14F038F94D
:1029D0001E4B1B48198814F04FF9414618481EF049
:1029E000A7FB1B4B16481B8801930F2304F17A01A8
:1029F000009394343423662213F0B8F8214615234B
:102A000044220F48009512F0E3F821461423442293
:102A10000B48009512F0DCF833880093214613230D
:102A20004422074812F0D4F83388009321461E232D
:102A30004422034812F0CCF802B0BDE8F08100BF98
:102A4000289700206890FF1F5A90FF1F6490FF1F77
:102A50006690FF1FFFFFFFFF2DE9F04F2DED048B68
:102A60008FB0800105460B9089480A910E46008878
:102A7000019064211C4633460B2001FB03F32946D9
:102A800093FBF2F3009009937C3130236822814854
:102A9000943511F0A3F9002C40F01081099B642BB0
:102AA00030DD0B9B102603F174012027DFF8F08145
:102AB000CDF804800CB221463B462422754800978D
:102AC00011F040FD2DB208F50063019329463B4605
:102AD00024227048009711F035FD6F4A6D484FF47D
:102AE000E86303FB06264FF01D083B4644222946B7
:102AF0000196CDF8008011F025FD684ACDF80080E0
:102B00003B468DE0002B5FDB0B9A0A2B02F1740130
:102B10005EDD099B0C2B40F31582099B122B40F3C1
:102B2000D781099B2C2B40F36382099B332B40F305
:102B30008E82099B352B40F3BE82099B4C2B40F3C0
:102B4000F282099B532B40F30283099B552B00F320
:102B500038832026524F01970CB221463346242257
:102B60004C48009611F0EEFC2DB207F500671C22D0
:102B700001973346294600924648242211F0E2FC90
:102B8000099A484B4348A2F1540703EB0723042258
:102B90000193294633460092402211F0D3FC3E4B6C
:102BA0003C484FF4E86202FB07374FF01D083346FC
:102BB000442229460197CDF8008011F0C3FC374A22
:102BC000CDF8008033462BE00B9B099403F1740190
:102BD000354F019720260CB2214633460096242219
:102BE0002C4807F5006711F0ADFC8DE8C0002DB250
:102BF000334629462422274811F0A4FC1D272B4BDD
:102C000001932946334644220097224811F09AFC4A
:102C1000274A099900974FF4E86303FB01223346E2
:102C20000192214644221B4811F08CFC0A9A21484B
:102C3000D31780FB0212D3EBA20300F0A58101227F
:102C400080FB0341DB170132D3EBA103D2B2F7D1F2
:102C5000A2EBC20292B20A9C0B990E48002C01F121
:102C6000AB010A44B4BF04210021511A09B2682201
:102C700013F0E6FF104B0748198813F0FDFF0548D5
:102C800021460FB0BDEC048BBDE8F04F1EF0C6BA74
:102C90006890FF1F28970020B47E020044A0030024
:102CA000C4C80300C4B60300C4B8030084A703006B
:102CB000C4A20400676666666490FF1FBC4BBD48F3
:102CC0001B8800932CB221460E23442212F0FCF8FC
:102CD000B94BB848198813F0CFFF099B002B40F37C
:102CE00056814FF00108B54FCDF8088000262846E0
:102CF00021F0BCFF099BDFEDB29A9FEDB29A08FB71
:102D000003F307EE903AF8EEE77A814667EEA97A88
:102D10008A4687EE897ACDE9069A17EE100A21F0E5
:102D2000B7FF41EC100B41EC180B1FF0F1F851EC20
:102D3000100BB0EE480AF0EE680ACDE90C011FF066
:102D400087F8DDE90C0100229F4B8DED040B21F08B
:102D5000F3FF32463B4621F0EFFF4A46534621F04F
:102D600039FE22F099FA9DED040B934B1B880193D9
:102D700005B2002251EC100B934B21F0DDFF02460F
:102D80000B460020914921F023FE22F085FA00B283
:102D90002B46009021464422864812F0C1F80FF2DB
:102DA000002BDBE900AB0FF20029D9E900896FF0B5
:102DB0006305029C42E0002B40F386803946304692
:102DC00022F06AFA06B2DDE9040122F065FA07B2E0
:102DD000DDE9020122F060FA49460FFA80FB404625
:102DE000CDF804A022F058FA00B2334600903A46DB
:102DF0005946704812F094F8AB1D1D46682D5BB221
:102E00003FF414AF07EE903AF8EEE77A67EEA97A4E
:102E100087EE897A17EE100A21F03AFF41EC100B89
:102E200041EC180B1FF074F859EC108BB0EE480A07
:102E3000F0EE680A1FF00CF85BEC10AB0022644B5C
:102E40004046494621F078FFDDE9066732463B46B9
:102E500021F0C0FD0022CDE902015D4B50465946EC
:102E600021F06AFF02460B460020584921F0B0FDD0
:102E70000022CDE90401574B4046494621F05CFF52
:102E800032463B4621F0A6FD0022524B06460F4635
:102E90005046594621F050FF02460B4600204B4950
:102EA00021F096FD424A012C804689466BB2B2F869
:102EB00000A080D12B0681D4099BAB42FFF67EAFE8
:102EC0003D4BB3F800A079E7099BAB42F8DD75E70D
:102ED0000CB2414F01971C2321460093242220234A
:102EE000344811F02FFB099A3C4B32480D3A03EB62
:102EF0004223082220260193214600922DB220234E
:102F0000402207F5006711F01DFB29463346019763
:102F100000962422274811F015FB314B01931D2206
:102F20002946334600922348442211F00BFB2D4BD7
:102F30000193192200923346214648221D4811F080
:102F400001FB73E60CB2244F01971C23214600932A
:102F500024222023174811F0F5FA099A224B15482C
:102F60000B3A03EB02230422019321460092202313
:102F7000202640222DB207F5006711F0E3FA0197F1
:102F800029460096334635E64FF6F97263E64FF070
:102F9000FF380026154FCDF80880A8E6AFF3008073
:102FA000EAC5619CB143EABF6AC59165D447E2BFF7
:102FB0006890FF1F289700205E90FF1F0000F03FE1
:102FC000DB0F49400000F84200002A400000514059
:102FD0000000344000003C40C4B80300F40907007E
:102FE00084A70300C4930300F4F902000000F0BFBB
:102FF000099A764B7648774F133A202603EBC22383
:103000000CB20193214633462422009611F09AFA1D
:103010000FFA85F8704A01923346414624226C48E3
:10302000009611F08FFA1D2507F5E86301934146DC
:10303000334600954422664811F084FA8DE8A000DA
:10304000334621464422624811F07CFAEEE5202600
:10305000624F01970CB221461C2324225C48009643
:1030600011F070FA099A5E4B0B99594800962D3A67
:1030700003EB4223019324220823903111F062FADA
:103080000B99DFF85081524807F5E0678DE8C000E2
:103090001C232422983111F055FA1D2708F5E86306
:1030A00001932946334600974422494811F04AFAD1
:1030B0008DE88001C4E72026484B01930CB22146DD
:1030C0001C2324224248009611F03CFA099A454BF1
:1030D0000B990096A2F1340803EB082301932422F4
:1030E000042390313A483B4F11F02CFA3E4B0096A6
:1030F0002DB203EBC82301932946334624223448DA
:1031000011F020FA4FF01D0807F5E86301932946F6
:103110003346CDF8008044222D4811F013FA019770
:10312000CDF800808CE72026304B01930CB233465B
:103130002422214600962648264F11F003FA099AC8
:10314000294B0096343A2DB203EBC223D3E7202655
:103150000CB2264F019721463346009624221C4884
:1031600011F0F0F92DB207F500671C22334629460D
:10317000009201972422164811F0E4F9099A1C4B99
:1031800013484D3A03EB4223082201932946334664
:103190000092402211F0D6F9164B019319222946CC
:1031A000334600920A48482211F0CCF9094B0193AA
:1031B0001D220092334621464422054811F0C2F9EF
:1031C00034E5099BA3F154066FE400BF04540500E5
:1031D0002897002044A00300C4C00300F4FB0200B1
:1031E000C4850300C4D80300C4DA0300C4C80300C4
:1031F000F4F90600049A03002DE9F047DFED3C7A6C
:1032000020EE270A8A1CFCEEC07A84B01FFA82FAEC
:10321000CDED027A07EE90AAF8EEE77ABDF80870D5
:10322000F1EE086AB3EE027A37EE877A77EEA67A85
:10323000C7F13C040230A4B2BCEEC77AFCEEE77AD8
:1032400005B222B200238DED027ACDED037A009211
:1032500001930FFA8AF20E46042329462548BDF849
:103260000C90BDF8088010F0B9FD0AEB040292B290
:10327000914526D890450DD83FB24FF4FC63009796
:1032800012B20193294604231A4810F0A7FD04B096
:10329000BDE8F087C2EB08031BB24FF6E071009364
:1032A00012B23E36C8EB06060191042329461148A6
:1032B00036B210F093FD4FF4FC6300960FFA88F2DB
:1032C000DFE7C2EB09031BB24FF47841009312B25F
:1032D000019104232946074810F080FDC9EB08033B
:1032E0001BB24FF6E07100930FFA89F2D9E700BFE5
:1032F0000000704228970020F0B5012883B02DD03F
:1033000088B9304C3048A4F50077961C002908BFD6
:103310003C46102531B21AB2019400952B4611F0AB
:1033200011F903B0F0BD02283CD0A0F10804022C32
:1033300026D90B2841D0072841D0244D2248A5F595
:103340000076002908BF3546941C10261AB221B217
:1033500001950096334611F0F5F8E2E71C4D1A4846
:10336000A5F50074002908BF25460232102411B2C9
:103370008DE830001AB2234611F0E4F803B0F0BD36
:10338000144E1148A6F50074002908BF26460232E3
:10339000102411B28DE850001AB2234611F0D2F871
:1033A00003B0F0BD0C4C0848A4F5007602320029A9
:1033B00008BF3446102511B2ADE7084CF3E7084CBE
:1033C000F1E700BF0413050028970020041B050047
:1033D00004170500041F0500042B05000423050045
:1033E00004270500F0B500EB800400EB4404640002
:1033F0000B2883B005460E46A4B239D0072831D831
:10340000012894BF0D341934A4B20022402327B2FE
:103410003946019200939A221423174810F0DEFCDB
:10342000164B15481B88019304F10E013C230093B1
:1034300009B206239C2210F0D1FCB6B9104B1B88B0
:1034400001934023394600939A2214230A4812F02C
:103450008DFB224631462846DD2303B0BDE8F0400F
:10346000FFF74ABF2534A4B2CFE7064B1B88E7E736
:103470003134A4B2C9E700BF289700206890FF1F2D
:103480006690FF1F6A90FF1F2DE9F04F00EB80044C
:103490002DED028B00EB440464000B2885B0F0EEA8
:1034A000408AB0EE608A0D46A4B200F01A81072867
:1034B00077D8012894BF0D341934A4B2A71C3FB2A9
:1034C000002D74D09D4E01964FF0080810237A22EB
:1034D00039469B48CDF80080A6F5407611F032F8C9
:1034E0000196CDF80080102383223946944811F0CC
:1034F00029F89FED940A68EE808AFCEEE87ACDED1B
:10350000037ABDF80C60002E00F0EE803C2E4FF0E8
:10351000030200F0FD808C4B894803EB0223082155
:10352000C6F15202019312B200911023394611F0F4
:1035300009F844F6692843F28612C6F13B03002DD0
:1035400018BF9046002B354662DC6B1E002B00F343
:103550008D80B5EE408AF1EE10FA00F0B480B5EE41
:10356000C08AF1EE10FAF2EE027A4BBF28EE678ABB
:1035700028EE278A754A764A7148FCEEC87A1023ED
:10358000CDED037A9DF80C10009302EB41220192DD
:103590003946662210F0D6FF05B0BDEC028BBDE8BF
:1035A000F08F2534A4B2A71C3FB2002D8AD1694EFA
:1035B00001964FF0080810237A2239466048CDF86A
:1035C0000080A6F5007610F0BDFF0196CDF80080D2
:1035D0001023832239465A4810F0B4FF9FED590A50
:1035E00068EE808AFCEEE87ACDED037ABDF80C60D7
:1035F000002E40F08980584BCDF800800193522274
:10360000102339464E4810F09DFF44F669283B23AD
:103610001FFA88FADFF84C914948B9F80020019266
:103620000FFA83FB172206233946CDF800B010F0BD
:10363000D5FBB9F80030019304F10C0109B206235F
:1036400017223F48CDF800B010F0C8FB04F1080184
:103650000423CDF800B0CDF804A009B217223848F1
:1036600010F0BCFB6B1E002B7FF773AFDFF8F490FC
:103670003348B9F800200192C6F15A0635B21EB29D
:103680002A4606233946009610F0A8FBB9F8003008
:10369000019304F10C012A4609B20623284800963A
:1036A00010F09CFB04F108012A46009609B2CDF8FF
:1036B00004800423224810F091FBB5EE408AF1EE1D
:1036C00010FA7FF44CAF254B019310233946009339
:1036D00066221B4810F036FF05B0BDEC028BBDE83A
:1036E000F08F3134A4B2E9E61D4BCDF80080019390
:1036F000522210233946124843F2861A10F022FF54
:10370000D0463B23354685E73C2E2A467FF403AF5F
:103710000D490B48531C01EB032308228DE80C00D4
:1037200039461023162210F00DFF44F6692843F2A3
:103730008613002D18BF98463B2397E7C4B30300B8
:103740002897002000007042044E0500F4E50600B2
:10375000B46A0200C4B2030004500500F407070075
:10376000045305005C90FF1F10B5C0B200EB80044D
:1037700000EB440464000B282DED028BA4B2B0EEE4
:10378000408A1AD0072815D8012894BF0D3419345F
:10379000A4B22046B0EE600A9A21FFF72DFDB0EEEC
:1037A000480ABDEC028BA01D80B29A21BDE81040F2
:1037B000FFF722BD2534A4B2EBE73134A4B2E8E729
:1037C0002DE9F043294B2A4C1B882A4F2A4D85B0FE
:1037D0000C2601938146009620461F2303224FF4B6
:1037E0008F718DED020B4FF00A0812F0BFF93B8884
:1037F00001932046CDF800801D23042240F21F11C2
:1038000010F0ECFA9DED020B002251EC100B1B4B5B
:1038100021F092FA00221A4B21F0B8FB21F03CFD76
:103820002B880193CDF8008003B20422204640F299
:103830001F1110F0D3FA3B880193204616230096FF
:1038400003224FF4827110F0C9FA204604224FF48B
:10385000827113F0F5F92988204613F00DFA4946D4
:10386000204605B0BDE8F0431DF0D8BC6690FF1FB0
:10387000289700206890FF1F5E90FF1F00003D40CA
:103880000000594070B5064682B00C46154653B14B
:103890000E4B0F481B8801930C23009312B26B232D
:1038A00009B210F09BFA6A1C611C12B209B20848F6
:1038B00013F0C6F9074B0648198813F0DDF90448E0
:1038C000314602B0BDE870401DF032BC6890FF1F69
:1038D000289700205E90FF1F70B5094C1E460546D4
:1038E00012B2204609B213F0ABF93146204613F06C
:1038F000C3F929462046BDE870401DF019BC00BF41
:10390000289700200AB201B2014813F099B900BF0C
:103910002897002000B583B060B9084B1A8801923F
:103920000823009305226421054810F057FA03B0DC
:103930005DF804FB4FF4FC62F1E700BF6890FF1FE5
:103940002897002008B50C210B481CF055FF0B48A8
:103950001DF014FC00210A4810F0FEFB094B002169
:1039600003F1800003F1080203F8011F9342FBD129
:103970009842F7D108BD00BFF4150700AC9DFF1FAA
:1039800028970020B795002000B5074B07481B88F3
:1039900083B014220193E62300930821742310F0CE
:1039A0001DFA03B05DF804FB6890FF1F2897002004
:1039B00000B5074B07481B8883B0142201934A23A4
:1039C00000938021BC2310F009FA03B05DF804FBDA
:1039D0005C90FF1F289700202DE9F04FDFF8D0A062
:1039E000DFF8D08083B0814600280CBF4FF0010B78
:1039F0004FF0020BA224002640232A4A0192A4F190
:103A0000100109B200931A222748A4F10E05F7B25B
:103A100010F098FD2DB24FF0080EBB4573464FF0E5
:103A20001C02214829461ED9204D0195CDF800E001
:103A300010F088FDB9F1010F2FD024D32025B9F162
:103A4000020F08F5805721B22B464FF02A02164884
:103A500014D001365034022EA4B208F50068CBD140
:103A600003B0BDE8F08FCDF804A0CDF800E07346B8
:103A700029461C220C4810F065FDEAE78DE8A000FD
:103A800010F060FDE5E72023CDF8048000932A22A2
:103A900021B2054810F056FDDBE7A8F5805220233F
:103AA0000192F3E7042E050028970020842D0500DD
:103AB000042D0500C4650300F0B53C4D3C4C2B883B
:103AC00083B05A260193204600963423962208217B
:103AD00010F084F92B880193009620468C239622BF
:103AE000402110F07BF92B880193009620464A2351
:103AF0009622D02110F072F92B880193009620466F
:103B00001E2396224FF48F7110F068F930272B880E
:103B100001932046009734236222082110F05EF9B9
:103B20002B880193204600978C236222402110F0BD
:103B300055F92B880193204600974A236222D02111
:103B400010F04CF91B4E2B880193204600971E2342
:103B500062224FF48F7110F041F94A2533880193A6
:103B60002046009534231422082110F037F93388B9
:103B70000193204600958C231422402110F02EF949
:103B80003388019320462B4600951422D02110F053
:103B900025F933880193009520461E2314224FF403
:103BA0008F7110F01BF903B0F0BD00BF6090FF1FD4
:103BB000289700205C90FF1F00B5084B08481B8821
:103BC00083B05E2201938423009308214FF4A073F5
:103BD00010F004F903B05DF804FB00BF6090FF1F14
:103BE000289700202DE9F843114EDFF84C80DFF8CC
:103BF0004C900746622400250B2122B20D4813F099
:103C00001FF8EBB29F420CBFB9F80010B8F80010D3
:103C1000084813F031F80135314606481DF088FA9E
:103C20001034082D06F11006A4B2E5D1BDE8F883E2
:103C300038960020289700205A90FF1F5E90FF1FA3
:103C40002DE9F04F2F4B304C1B88DFF8C090DFF888
:103C5000C0A0DFF8C08083B0402601934A232046ED
:103C6000009314224FF49A73082110F0B7F8082536
:103C70000AF1800B204633468DE840021A221021BB
:103C800010F060FC202720462B46CDF804B00095AC
:103C90001C22122110F056FC20463B4639468DE886
:103CA00080012A2210F04EFC334620468DE8400267
:103CB0001A22602110F046FC2B4620468DE8200891
:103CC0001C22622110F03EFC08F50063019320469F
:103CD0003B4600972A22702110F034FC33462046E0
:103CE0008DE840021A22B02110F02CFC8DE820044F
:103CF0002B4620461C22B22110F024FC03B0BDE864
:103D0000F08F00BF5C90FF1F28970020042E050055
:103D1000042D0500C445030010B51A4A82B012886C
:103D2000019279230446009364224FF49A73082188
:103D3000154810F053F8154B019373230093672235
:103D4000D6231021104810F0FDFB04EB840204EB95
:103D5000420252000B2C92B211D0072C0CD8012C2D
:103D600094BF0D32193292B22046DD23012102B0F8
:103D7000BDE81040FFF7C0BA253292B2F4E7313205
:103D800092B2F1E76090FF1F2897002004240600FC
:103D90002DE9F0410E4F0F4E82B04FF4A9681A245E
:103DA00008FB00700D46019023463046009498228F
:103DB0003B2108FB057510F0C5FB8DE8300023465C
:103DC00030469822A22110F0BDFB02B0BDE8F08180
:103DD000F4100300289700202DE9F043184B194EEA
:103DE0001B88DFF86880DFF8689083B0074601938E
:103DF0005723009318225C230A2113480FF0EEFF8B
:103E00001A2400250C2122B20F4812F019FFEBB240
:103E10009F420CBFB9F80010B8F800100A4812F021
:103E20002BFF0135314608481DF082F90C34072D6F
:103E300006F11006A4B2E5D103B0BDE8F08300BFDF
:103E40006090FF1FB8960020289700205A90FF1F0F
:103E50005E90FF1F2DE9F04F85B0214B03938946FB
:103E6000934602904FF000084FEA081A039D029F04
:103E70000AF13A0A002417F8013B1A4AC84506BF5E
:103E80001E01F6B21E4602F54071BBF1000F02D1D1
:103E90002878B04211D01BB11349C84508BF11465C
:103EA00022010820643201910090102312B20FFA0F
:103EB0008AF10E4810F046FB2E700134082C05F1F3
:103EC0000105D8D1029B08330293039B08F1010836
:103ED0000833B8F1100F0393C6D105B0BDE8F08FD9
:103EE000B8950020C4AF0300C4B303002897002096
:103EF0002DE9F0470130DFF844A1DFF8389182B0B6
:103F00005FFA80F8AD240126651FF7B24FF0100E5E
:103F10002DB2B84573464FF016024548294654D095
:103F2000CDF800E0CDF804A010F00CFB21B219226E
:103F30003F4812F085FEB9F800103D4812F09CFE93
:103F40001234002331460A2239481DF027F9A4B261
:103F500040F23D139C4206F10106D5D1DFF8D8A00E
:103F6000A9240AF5206909260A2516E02B2221B288
:103F70002F4812F065FE2F4B19882D4812F07CFE59
:103F800000230A2231462A481DF008F9112D19D0C4
:103F900001351234EDB2A4B20136F7B2611EB84554
:103FA00009B222D010238DE808022822204810F000
:103FB000C9FA092FDAD1211D09B22B221C4812F0AF
:103FC0003FFED8E702B0BDE8F0871B4B01931023FA
:103FD000174800932946162210F0B4FA21B219228C
:103FE000134812F02DFE0021A7E710238DE80804E6
:103FF00028220F4810F0A6FAB8F1090F06D021B216
:104000002B220B4812F01CFE0021B6E7211D2B22AB
:1040100009B2074812F014FE0021054812F02CFEE8
:1040200000230A22314602481DF0B8F8B0E700BF6D
:10403000289700205C90FF1F04050500040F050071
:1040400000B5084B08481B8883B064220193822383
:10405000009308214FF496730FF0C0FE03B05DF893
:1040600004FB00BF6090FF1F2897002070B5064634
:104070006A250224311B2046B1FA81F101342B4616
:1040800008224909E4B2FFF737F91235082CADB21E
:10409000F0D170BD70B584B0324D3348334E344CDE
:1040A0000C210E2207230291019200931422FF2378
:1040B00015210FF0B1FB28462E491DF081F905F1BD
:1040C00010002D491DF07CF905F120002B491DF051
:1040D00077F905F130002A491DF072F905F1400029
:1040E00028491DF06DF905F1500027491DF068F9C8
:1040F00005F1600025491DF063F93246244900208E
:1041000021F0F2F8204623491DF05AF904F110007D
:1041100021491DF055F904F1200020491DF050F906
:1041200004F130001E491DF04BF904F140001D4917
:104130001DF046F904F150001B491DF041F904F14E
:1041400060001A491DF03CF904F1700018491DF097
:1041500037F918493246002004B0BDE8704021F01C
:10416000C3B800BFB8960020289700200C90FF1F0E
:104170003896002004160700101607001C160700CA
:1041800028160700301607003816070044160700E7
:104190003529000050160700581607006016070062
:1041A00068160700701607007816070080160700CB
:1041B0008816070019290000002910B518BF4FF410
:1041C0007841044608BF4FF4FC61084812F054FDE2
:1041D000204622F0D5F82146024604481CF094FF00
:1041E0000248BDE810401CF0C9BF00BF289700205E
:1041F0002DE9F04F2DED028BB0EE428AF0EE628A8F
:104200008BB058EC107B5AEC119B0E46044608927A
:1042100011EE100A10EE102A0993514643468DED17
:10422000061B8DED020B20F0D3FB04F1010ACDE952
:1042300004016C230020B21E751E1FFA8AFA2DB2EB
:1042400012B221B201900093B548B64FDFF8E89260
:1042500014230FF0C3FD2A460FFA8AF1B04812F07A
:10426000EFFC3988AE4812F007FDDDE9060121F0C8
:1042700013F80146AA481CF0D1FF0023DDE9020132
:10428000002220F0CBFF00284FF6FD7108BF00216F
:10429000514406F15F0212B209B2A14812F0D0FCFB
:1042A00039889F4812F0E8FCDDE9020120F0F4FFB4
:1042B00001469B481CF0B2FF04F114089A4B984841
:1042C0001B8801931FFA88F84FF0620E0FFA88FBE3
:1042D000CDF800E02A465946BDF920300FF07EFDAA
:1042E000DDE90223104603F10041DDE9042320F05B
:1042F0004DFE00228D4B20F01FFD20F0CDFF06F17A
:104300006005ADB2281A089B1FFA80FA0FFA8AF2EC
:10431000B9F800000190434400921BB2594680480E
:1043200010F0FEFDDDE9020100224FF0404320F0D5
:1043300075FF48B1DDE9060100224FF0804320F00F
:104340008BFF002840F0C380089820F07FFC6AA310
:10435000D3E9002320F01AFECDE90601584620F0EB
:1043600085FC67A3D3E9002382468B46DDE906017D
:1043700020F0E2FC52465B4620F02CFB20F08CFF44
:1043800036B20FFA85F803B2B9F800000190194669
:1043900032466348CDF8008010F0C2FD5AA3D3E93D
:1043A0000023DDE9060120F0C7FC52465B4620F001
:1043B00011FB20F071FFB9F800E0CDF804E003B282
:1043C000194632465648CDF8008010F0A9FD50A39A
:1043D000D3E90023DDE9060120F0AEFC52465B463E
:1043E00020F0F8FA20F058FFB9F800E0CDF804E02A
:1043F00003B2194632464A48CDF8008010F090FDCD
:1044000045A3D3E90023DDE9060120F095FC5246DF
:104410005B4620F0DFFA20F03FFFB9F80020019260
:1044200003B2194632463E48CDF8008010F078FDC0
:1044300053EC182BDDE9060120F07EFC52465B466A
:1044400020F0C8FA20F028FF394ACDF8008003B2E6
:104450001288019219463246314810F061FD089BDE
:1044600083B303F1130BA344DDF824A013341FFA24
:104470008BFBA4B24FF00009DDE90223FAE8020148
:1044800020F0A6FADDE9042320F080FD0022274B6E
:1044900020F052FC20F000FF04F10108281AB9F1C5
:1044A000000F06B24A4621B20FFA88F31C4804DD19
:1044B0003C880194009610F033FD1FFA88F4A34560
:1044C000B146D9D10BB0BDEC028BBDE8F08FAAF19B
:1044D000040204F1080112B209B2114812F0B0FB53
:1044E00039880F4812F0C8FB012212490C481CF011
:1044F0000BFE29E7AFF30080000000008088D54064
:10450000000000000088B340000000000088C340A5
:1045100000000000004CCD40000000000088D340A7
:10452000289700205E90FF1F6890FF1F00005840F2
:104530006690FF1F901607005A90FF1F38B5054C74
:104540000546204612F098FB29782046BDE8384001
:1045500012F02EBB289700202DE9F04782B00028EA
:104560003BD12D4BDFF8C0A01B880193A023009303
:1045700088460746BC232948622280210FF02EFC82
:104580000AF520698724E51EFEB24FF0100E2DB209
:10459000B04573464FF06602204829462BD0CDF82F
:1045A00000E0CDF804900FF0CDFF21B269221B4846
:1045B00012F046FB1A4B1988184812F05DFB06F101
:1045C0004101C9B21548013712F0F2FA1234082F2E
:1045D000A4B2D8D102B0BDE8F087124B0F481B88B7
:1045E00001930E2300939422682384210FF0F6FB9D
:1045F00002B0BDE8F0871022134629460092074812
:10460000CDF804A066220FF09DFF21B26922034875
:1046100012F016FB0021CFE76090FF1F28970020C3
:104620005C90FF1F6890FF1F04050500104B83FB83
:104630000123C917C1EB6313DBB210B50D4C18464B
:104640002370FFF7CFFA0C4A237814680B480C4903
:104650001C44002214F832300132003318BF012309
:10466000102A00F8013F01F8013FF3D110BD00BF4F
:104670001F85EB51619700205C9700204B9700202D
:10468000CFA2002038B5134B134D144C83FB0123EC
:10469000C917C1EB6313DBB205EBC31202F5377226
:1046A0001846226085F8DC3AFFF722FC0C4B2468A0
:1046B0001B780C480C491C44002214F8323001329B
:1046C000003318BF0123102A00F8013F01F8013F11
:1046D000F3D138BD1F85EB51A09700205C970020D7
:1046E000619700204B970020CFA20020F0B1F0B4DA
:1046F0000F4E104D33682F780F4C104803EBC1015B
:104700000022CB5DB3FA83F35B09CB5531682B787C
:10471000194411F832300132003318BF0123102A36
:1047200004F8013F00F8013FF3D1F0BC704700BF2F
:104730005C970020619700204B970020CFA20020BB
:1047400010B584B000F056FF244C25480CF042FE12
:10475000244968461CF034FE23789FED230A234940
:1047600001EE903A6A46F8EE611AB7EE001AF1EEE1
:104770000C0A00200CF0F6FC68461CF0E1FD1C4918
:1047800068461CF01DFE1B4B1B4993F8DC3A9FED5D
:10479000160A01EE903A6A46F8EE611AB7EE001A70
:1047A000F2EE0E0A01200CF0DDFC68461CF0C8FD9C
:1047B000124A23781468124812491C44002214F843
:1047C00032300132003318BF0123102A00F8013FB4
:1047D00001F8013FF3D104B010BD00BF6197002084
:1047E000ED46000094160700000000002D46000072
:1047F0009C160700A0970020854600005C970020CB
:104800004B970020CFA200200E4B1B78062B00D028
:10481000704710B40C4A0D4B14681B780C480D49B6
:104820001C44002214F832300132003318BF012337
:10483000102A00F8013F01F8013FF3D15DF8044B65
:10484000704700BFA09700205C9700206197002070
:104850004B970020CFA2002038B5134D2B78A3B181
:10486000124C002294F8DD3A1149104C086833B11B
:1048700094F8D111BDE8384049B2FFF7EBBA4FF0D8
:10488000FF31BDE83840FFF7E5BAFFF795F9094B6E
:10489000064C1878FFF7A6F994F8DC0AFFF728FB16
:1048A00001222A70DEE700BF7C970020A09700203D
:1048B0005C9700206197002070B55F4C94F8D1316F
:1048C0005BB903F0FF065D4B1D68002D65D0012D1F
:1048D00000F0A380022D00F0958094F8D131584A61
:1048E00055491268DBB202EBC30512F833304BB105
:1048F00091F8DA32002B65D0B7EE000A002151485A
:10490000FCF7D6FA6B784BB194F8DA32002B69D009
:10491000B7EE000A01214C48FCF7CAFAAB784BB15C
:1049200094F8DA32002B3DD0B7EE000A0221474856
:10493000FCF7BEFA2B79F3B96B790BBBAB7923BBD0
:10494000EB793BBB23783C4A062B00D070BD92F834
:10495000DD5A3F483F49002310F8012F2DB194F84C
:10496000D1619E4201D182F001020133102B01F886
:10497000012FF1D170BDFBF7FDFE6B79002BDDD06F
:10498000FBF7FEFEAB79002BDAD0FBF7FFFEEB79ED
:10499000002BD7D0FBF700FFD4E7FCF76FFB2E4BC3
:1049A0001D709AE796201CF0C7FC07EE900A9FED59
:1049B0002B7A9FED2B0AF8EE676AC6EE877A37EE00
:1049C000800AB3E796201CF0B7FC07EE900A9FED33
:1049D000237A9FED230AF8EE676AC6EE877A37EEF0
:1049E000800A8BE796201CF0A7FC07EE900A9FED4B
:1049F0001B7A9FED1B0AF8EE676AC6EE877A37EEE0
:104A0000800A87E7144A13780133DBB2032B137053
:104A10007FF663AFFCF752FC5FE70F4D2B78013355
:104A2000DBB2032B2B707FF658AFFCF7BBFBFCF718
:104A3000FFFB2E7051E700BFA0970020E08E002002
:104A40005C970020B4170700D417070090170700E1
:104A50004B970020CFA20020609700200000484321
:104A6000CDCC4C3E044B054A93F8DC1A03EBC11342
:104A700003F5377313607047A09700205C97002000
:104A8000C3688268033323F0030319448A4228BFB2
:104A90004268C36026BFC160D0180020704700BFC5
:104AA00010B5044600F5E0701CF04AFC04F5D8701F
:104AB0001CF046FC04F582701CF042FC204610BD40
:104AC00008B5064B012283F8DD2A0CF031FFFFF711
:104AD0009BFEBDE808400DF08FBA00BFA0970020F4
:104AE00008B5064B002283F8DD2A0CF021FFFFF702
:104AF0008BFEBDE808400DF07FBA00BFA0970020F4
:104B000008461BF0FDBE00BF10B504461CF0A2FA1B
:104B1000204610BD70B52148214A0368214D126816
:104B2000296884B00293029B9B1A8B4231D31E4B9F
:104B30001E4C93F8D1112678D3F8D441314014BFDC
:104B40000126002683F8DA6204B121B301680391DB
:104B5000039993F8D1010130C0B296318DF8070066
:104B60008A1A9DF8071022440F292A6005D99DF85A
:104B70000720103AD2B28DF807209DF80720D2B254
:104B800083F8D12193F8D1010C210CF07DFA0DF0BE
:104B900043FA04B070BD6442D8E700BFF4BB002004
:104BA000989700208C970020A0970020B590FF1FB9
:104BB000064B93F8DD2A0AB1FFF7ACBF93F8D12179
:104BC0000E2A9CBF0F2283F8D1217047A0970020A6
:104BD00010B1084B1A7802B9704710B500241C7048
:104BE000FEF7B0FE0CF086FA0CF0B2FB024B1C7024
:104BF00010BD00BFA09700207C970020FFFFFFFFA3
:104C00002DE9F04FDFEDC87A2DED048B60EE277AA9
:104C100093B0054617EE900AF0EE418AB0EE608A36
:104C20000C4620F035F841EC100B41EC190B1DF04F
:104C30006FF918EE900A59EC108B20F029F8024613
:104C40000B461FF0C7FE02460B464046494620F081
:104C50009DF9B0EE490AF0EE690A06460F46CDE925
:104C600006671DF0F5F8304639460022AF4B8DED52
:104C7000000B1FF0AFFE02460B460020AC4920F0AF
:104C800085F9DFEDAC7A88EE277ACDE90801B7EE39
:104C9000008A17EE100A1FF0FBFF9FEDA10B41ECFD
:104CA000110B1DF01DFA5BEC10AB10EE102A10EE8C
:104CB000100A5B4659461FF08DFE5246CDE90401AD
:104CC0005B465046594620F037F8C8EE287A002255
:104CD000964B37EEC88A1FF07DFE064618EE100A86
:104CE0000F461FF0D5FF02460B463046394620F0EE
:104CF00023F8DDE904231FF06DFE41EC100B1DF0DD
:104D00008BFB404653EC102B494620F015F800224F
:104D1000CDE90201854B504659461FF059FE024627
:104D20000B46DDE90001CDE90A2320F005F8002259
:104D3000804689467D4B504659461FF04BFE06463D
:104D40000F4602460B46DDE900011FF0F5FF324633
:104D5000CDE90C013B46404649461FF03BFE02466A
:104D60000B46DDE90201CDE90E231FF033FE42467A
:104D7000CDE910014B46304639461FF029FE024668
:104D80000B4680468946DDE902011FF023FE0646F8
:104D90000F46062D68D8DFE815F06C00A300D1009F
:104DA0000B0167002801070002460B4600206049FE
:104DB00020F0ECF8DDE9102306460F465046594630
:104DC0001FF0BAFF32463B461FF0B6FF20F064FAF0
:104DD00000224FF040432060594650461FF0ACFF80
:104DE000DDE90C23CDE90001DDE90A011FF0F2FD48
:104DF00002460B46DDE900011FF09EFF32463B46AE
:104E00001FF09AFF20F048FADDE902236060DDE937
:104E10000E011FF0DDFD52465B461FF08DFF32464E
:104E20003B461FF089FF20F037FADDE90C23A06034
:104E3000DDE90A011FF0CCFD02460B461FF0CAFD5A
:104E400032463B461FF078FF20F026FADDE90223C8
:104E5000E060494640461FF0BBFD32463B461FF02E
:104E60006BFF20F019FA206113B0BDEC048BBDE894
:104E7000F08FDDE900AB002052465B462B491FF066
:104E8000A7FD00222C4B06460F461FF055FFDDE91B
:104E9000088942464B461FF04FFF20F0FDF932468D
:104EA000054620603B46404649461FF045FF20F03E
:104EB000F3F9002260604FF04043A5605046594628
:104EC0001FF03AFF42464B461FF036FF20F0E4F950
:104ED0004646E0604F46DDE9062300201349BAE765
:104EE000DDE900AB0022114B504659461FF072FD20
:104EF0000022114B06460F461FF01EFFDDE9088910
:104F000042464B461FF018FF20F0C6F9054607F150
:104F100000413046256042464B46C6E7AFF300806D
:104F20000000000000002440465615390000F03F04
:104F30000000D041000020420000E03FDDE90856BB
:104F4000DDE906782A463346384641461FF0F4FE2E
:104F500020F0A2F908F10043002184E803002A466A
:104F60001946384633461FF0E7FE20F095F9002237
:104F70004FF04043A060DDE900011FF0DDFE2A464E
:104F800033461FF0D9FE20F087F94049E0603A46E9
:104F9000434600201FF01CFD2A4633461FF0CCFE7E
:104FA00020F07AF9206113B0BDEC048BBDE8F08FDE
:104FB000DDE908673946304620F06EF900220546E3
:104FC00020604FF04043DDE900011FF0B5FE32469E
:104FD0003B461FF0B1FE20F05FF9A5606060E06025
:104FE000DDE906230020294935E7DDE9102300200B
:104FF00027491FF0CBFF3246CDE900013B46504622
:1050000059461FF099FEDDE900562A4633461FF047
:1050100093FE20F041F9DDE90C232060DDE90A016F
:105020001FF0D6FCDDE904231FF086FE2A46334636
:105030001FF082FE20F030F9DDE90223606049466E
:1050400040461FF0C5FC52465B461FF075FE2A46DF
:1050500033461FF071FE20F01FF9DDE90C23A0603C
:10506000DDE90A011FF0B6FC00224FF040431FF0BB
:1050700063FE2A4633461FF05FFE20F00DF9DDE99E
:105080000223E060DDE90E0184E700BF0000F03F8D
:105090000000D0412DE9F84F04681746002C00F0BD
:1050A00081812368DFF8F8A21B6853458046894652
:1050B00040F08B81E368A268033323F0030303F11C
:1050C00008018A42E360C0F08F816568E160E818FA
:1050D000002800F089810023046043600546D8F869
:1050E00004B0BBF1000F00F00681D9F800605C4607
:1050F00003E02468002C00F0FE806168304620F058
:1051000073FF0028F5D12B68002B13BF2A4600221D
:1051100000230723E26023726E68002E00F0C28035
:10512000344603E02468002C00F0BC806168984895
:1051300020F05AFF0028F5D17A68E2600823237234
:105140006E68002E5CD0344602E02468002C57D0F4
:105150006168904820F048FF0028F6D13A68E26084
:10516000082323726E6816B3344601E02468F4B154
:105170006168894820F038FF0028F7D1FA68E260BA
:10518000082323726E68002E63D0344602E0246840
:10519000002C5ED06168814820F026FF0028F6D1FF
:1051A0007A69E260082323722846BDE8F88F2868F0
:1051B000002800F013810368794A1B68934240F08D
:1051C0003981C3688268033323F0030303F11001BC
:1051D0008A42C360C0F002814468C1601C44324608
:1051E00014B10023236023720AB931E11A4613680F
:1051F000002BFBD11460002CC4D0674B6360BDE76B
:105200002868002800F0ED800368654A1B68934217
:1052100040F01581C3688268033323F0030303F170
:1052200010018A42C360C0F0DC804468C1601C4445
:10523000324614B10023236023720AB906E11A46EC
:105240001368002BFBD11460002C8BD0514B636092
:1052500084E72868002800F0BE800368504A1B6875
:10526000934240F0E280C3688268033323F0030373
:1052700003F110018A42C360C0F0AD804468C16090
:105280001C44324614B10023236023720AB9E1E0C2
:105290001A461368002BFBD11460002C84D03F4BBE
:1052A00063607DE72868002800F0938003683C4A2B
:1052B0001B68934240F0B480C3688268033323F0D4
:1052C000030303F110018A42C360C0F08280446886
:1052D000C1601C4414B10023236023720EB9BBE0EB
:1052E0001E463368002BFBD13460002C3FF428AFFE
:1052F000274B636020E7D8F8000000287BD00368C4
:105300001B68534540F08680C3688268033323F0EE
:10531000030303F110018A42C3606CD34468C16087
:105320001C445A4614B10023236023720AB995E045
:105330001A461368002BFBD11460002C3FF4ECAE2E
:10534000D9F80030002B7FD0D8F80000D9F80860D9
:1053500003681B68534506F1010640F08280C3686C
:105360008268033323F00303F1188A42C360FFF419
:10537000D3AE4268C1601344002B3FF4CDAE324639
:10538000D9F80010184619F0E3FE6060BBE600BFD4
:10539000B0160700B8160700C0160700CC160700A5
:1053A000814A0000314E324D336813F001047FF41E
:1053B000B3AE30461AF01EF800283FF4ADAE3046CA
:1053C0002C606C601AF01CF8A6E60821204698476D
:1053D0007EE6002482E73246002457E73246002466
:1053E00002E73246002428E7204E336813F0010418
:1053F00004D01F4D73E65A46002497E7304619F053
:10540000F9FF0028F5D01A4D30462C606C6019F079
:10541000F7FF64E610219847D8F80420044681E796
:10542000102198476E68044654E7102198476A682F
:10543000044627E7102198476A680446D0E6102101
:1054400098476A680446F4E663605CE66C60FBE6D5
:105450006C60D0E66C6020E76C6046E7C8F80440FA
:105460006BE731469847034686E700BF6497002004
:1054700068970020F0B585B00446174668461BF0D3
:10548000B3FF3A4669462046FFF704FE06466846E3
:105490001BF056FF7568002D46D02C4602E02468AC
:1054A000002C41D061683C4820F09EFD0028F6D1D8
:1054B0007A6AE2600823237275687DB12C4601E0A8
:1054C00024685CB16168354820F08EFD0028F7D172
:1054D0003A6AE2600823237205B0F0BD3068002804
:1054E00046D003682E4A1B68934246D1C36882683F
:1054F000033323F0030303F110018A42C36037D35F
:105500004468C1601C442A4614B1002323602372FE
:105510000AB93EE01A461368002BFBD11460002C38
:10552000DAD01E4B6360D3E7306820B303681C4AAF
:105530001B68934226D1C3688268033323F00303B8
:1055400003F110018A42C36015D34468C1601C4452
:1055500014B10023236023720DB918E01D462B6897
:10556000002BFBD12C60002CA6D00B4B63609FE777
:105570002A460024CCE70024EEE710219847726801
:105580000446C1E71021984775680446E0E7746057
:10559000E9E77460C3E700BFD0160700D81607001C
:1055A000814A000008B590ED041AD0ED060A90ED8E
:1055B000030A007FFFF724FB08BD00BF0B289ABF3A
:1055C000024B53F820000020704700BFB4180700BA
:1055D000054B5B780B2B9CBF044A52F82320044BED
:1055E00088BF00221A607047A0970020B4180700F7
:1055F0008497002008B5074902200BF08DFE06496C
:1056000001200BF089FE05490020BDE808400BF0A1
:1056100083BE00BFC14A0000E14A0000D14B000038
:105620002DE9F041794C94F8DD3A88B0002B40F038
:10563000A58094F8D1310E2B9CBF0F2384F8D13173
:10564000734D744E2B680093734F009B326839681A
:105650009B1A99426AD8714B1978481C092918700D
:105660006DD92968019101996D48DFF8A4E18A1A82
:10567000824200F286806B49DFED6B6A0A889FEDFB
:105680006B7A6B4807EE902AF8EEE77A008808807C
:1056900077EEA67A6749684A0988B2F800801180D7
:1056A000C7EE876A00221A7016EE900A1FF0F0FA11
:1056B00041EC100B4046FEF783F8DFF894810BF0C5
:1056C00023FF98F8002023789A4200F09480062B5C
:1056D0003DD8DFE803F07F3C7B3987837700FEF716
:1056E00031F92378554904A819441BF069FE0322B7
:1056F00004A811460023FEF7C5F804A81BF020FEFD
:10570000B8F1000F48D12B684D4A0393039B3068D2
:1057100011681B1A8B42C8BF13600BF0E9FF2B689E
:105720000493049B326864339B1A3B60454C2368A6
:10573000012B66D0022B59D008B0BDE8F081424958
:1057400009780029B9D18CE70CF054FC237888F84B
:1057500000304FF00108062BC1D801A252F823F007
:10576000BF570000DF560000B9570000B3570000D4
:10577000AD570000A75700008F570000FFF7CAF988
:105780005EE7DEF800200292029A326073E7FFF7CC
:1057900063F8B8F1000FB6D00023032208212B488C
:1057A000FEF770F8AFE708F057FCA9E70CF004FE2D
:1057B000A6E70CF023FCA3E70CF094F9A0E70CF0AB
:1057C00051FB9DE7FEF7BCFF2378C0E70CF076F8AD
:1057D0002378BCE70CF094FA2378B8E708F07AF95C
:1057E0002378B4E70CF026FF2378B0E7FBF74AFDF7
:1057F00008B0BDE8F081144A92F8008088F00108F2
:10580000A9E7FBF77DFC236894E700BFA097002081
:10581000F4BB002098970020889700209C970020D8
:1058200040420F0074BD0020333323433333A3437E
:105830007ABD002078BD0020F8BC0020E0170700EA
:1058400080970020E08E00207C9700205099002057
:10585000B490FF1F08B5074B1A78824209D0187020
:10586000FEF770F80BF046FC0BF072FD024B0022C5
:105870001A7008BDA09700207C9700202DE9F84FF2
:1058800004462DED028BDFED8B8ADFF834A2DFF8C2
:105890003492DFF83482C0ED098A00254FF07E563D
:1058A000B6EE008A4FF0010B0627C0ED118AC0ED5D
:1058B000198A80ED028A80ED0A8A80ED128A80EDD5
:1058C0001A8AC0ED018A057380F82C5080F84C507C
:1058D00080F86C5080F80DB080F82DB080F84DB095
:1058E00080F86DB0C0F810A0C0F830A0C0F850A08B
:1058F000C0F870A0466146634665C0F81890C0F8CD
:105900003890C0F85890C0F81C80C0F83C80C0F8AF
:105910005C8080F82070684980F8407080F8607082
:10592000C4ED218A84ED228AC4ED298A84ED2A8A75
:10593000C4ED318A84ED328A00F582706667C4F85E
:105940007890C4F87C8084F8807084F88C5084F857
:105950008DB0C4F890A0C4F89460C4F89890C4F8CE
:105960009C8084F8A07084F8AC5084F8ADB0C4F882
:10597000B0A0C4F8B460C4F8B890C4F8BC8084F88F
:10598000C07084F8CC5084F8CDB0C4F8D0A0C4F86E
:10599000D460C4F8D890C4F8DC8084F8E070C4ED1A
:1059A000398A84ED3A8A84F8EC5084F8EDB0C4F872
:1059B000F0A0C4F8F460C4F8F890C4F8FC8084F84F
:1059C00000711BF0FDFC3D4BC4F83831C4F8603168
:1059D000C4ED468A84ED478AC4ED508A84ED518A2D
:1059E000C4ED5A8A84ED5B8A294684F8145184F800
:1059F000205184F821B1C4F824A1C4F82861C4F866
:105A00002C91C4F8308184F83471C4F83C6184F876
:105A1000485184F849B1C4F84CA1C4F85061C4F8A5
:105A20005491C4F8588184F85C71C4F8646184F8B6
:105A3000705184F871B1C4F874A1C4F87861C4F8E5
:105A40007C91C4F8808184F8847104F5D870C4F81E
:105A50008831C4ED648A84ED658AC4F88C6184F869
:105A6000985184F899B1C4F89CA1C4F8A061C4F815
:105A7000A491C4F8A88184F8AC711BF0A1FC29465C
:105A800004F5E0701BF09CFC1021032384F8D15135
:105A900084F8D85284F8DC5A84F8D01184F8D932CA
:105AA000BDEC028B2822204684F8DD5AC4F8D421AC
:105AB000BDE8F88F00000000F0170700CDCCCC3D0A
:105AC00000803B46F4FD343F0000C0C010B50446E2
:105AD0000068F0B10368134A1B6893421FD1C36882
